:20000000003A0120D93F020039FB021039FB021039FB021039FB021039FB021039FB0210C7
:1C00200039FB021039FB021039FB021039FB021039FB021039FB021011FB021002
:20003C002DE9F04F99B0054680780224532800F2C785DFE810F054009900A800B800C80008
:20005C00DA00EA000C011B01C5052A0138015901C505C505C505C505C505C505C505C505BF
:20007C00C505C505C505C505C505C505C505C505C505C505C505650188019401A001AB01E5
:20009C00BA01D401EB0107023A02C505C505C505C505C505C505600276028C02A202B80201
:2000BC00CD02DE020303C505C505C505C505C505C50538034C036003C5056D03770395037A
:2000DC009E03AA03B603C503CF03F2030F0434043C044E045B0467048B0492049504EC1C01
:2000FC00E97A2A7B002320461CF0C4FD8DF8180006AB65200021012220F05CFFDFF8180B0A
:20011C000078012800F25B85204627F0B2FD002800F0558505460079012840F0508527F029
:20013C0045FB00274FF400018DF83F008DF83800000ACDF83A108DF841708DF83E708DF870
:20015C0040008DF839000EAE214606F10A0027F00EFE2978152233460170697887704170F3
:20017C004520FF2100F029BD27F0A7FD6979AA790023002423F0CAFC8DF838000EAB65202D
:20019C00012100F053BC27F059FB27F0B9FC01460EA8022227F045FD8DF8180006AB65209E
:2001BC00022100F043BC27F049FB27F0A9FC01460EA8032227F035FD8DF8180006AB6520BC
:2001DC00032100F033BC27F039FB27F099FCEA7901460EA80023002425F050FA8DF8180066
:2001FC0006AB6520042100F021BC27F027FB27F087FC01460EA8052227F013FD8DF8180000
:20021C0006AB6520052100F011BC0020DFF8304A27F0F9F9ADF85800681DA0478046E81DFB
:20023C00A04795F809B0824605F10A07BBF1100F00F2AE830EAC5E46002E00F0AC8338468F
:20025C0027F0D5FD24F8020B013E0237F4E727F0F5FA27F055FC01460EA8102227F0E1FC8C
:20027C008DF8180006AB65200721DFE327F0E6FA27F046FC01460EA8112227F0D2FC8DF8BB
:20029C00180006AB65200821D0E327F016FD6A7B691D0023002422F003FA8DF838000EABB7
:2002BC0065200A21C2E302208DF8200027F005FDADF81800681D27F09AFDEA79064605F158
:2002DC0008018DF838200EAF781C27F07DF806A831463A46002300241FF078F88DF85800F7
:2002FC0016AB65200B21A1E327F0E7FC0021002421F0DAFC8DF838000EAB65200C2195E326
:20031C000020DFF83C4927F07EF9ADF85800681DA047804695F80F9005F11000A04705F179
:20033C001304AD7C83460F2D00F247830EAE2F46002F00F04583204627F059FD26F8020B8A
:20035C00013F0234F4E727F079FA27F063F927F02BF840F0468306A827F009FD46E327F0F5
:20037C006DFA27F057F927F01FF840F04D8306A827F0FDFC4DE327F0A0FC27F08AFB8DF8A3
:20039C0038000EAB6520232100F016BCDFF88818C8208DF81800E81C0978002900F0818327
:2003BC0026F088FC8DF81800A3E36879EE1CFE280BD1A879FF2808D12878082805D3304638
:2003DC0027F015FD314623F029FE0EA9304626F04FF9002800F09183054600249FE3E81C7B
:2003FC00042124F04BFBE97927F023FDDFF844188DF83800022026F085FDDFF83C180320D1
:20041C0026F080FD0EAB65202621D5E327F04FFC044605F10E0027F0EAFC297C6A7C03466F
:20043C00E878CDE90012AA1D214624F053F8DFF800188DF83800042026F064FD0EAB652066
:20045C002721B9E34FF00208E81C8DF8408027F0CEFCADF8380068798DF85800A81D27F0B2
:20047C00C6FC2E7A044600270935CDE9005716A80EA9224633461FF0BBFD27F0FDF910D12F
:20049C00DFF890078DF84080CDE9005722463346C08AADF8380016A80EA91FF0A9FD8DF8C9
:2004BC00180006AB6520282186E30226E81C8DF8406027F09CFC27F023FBED7904460EA885
:2004DC00002321462A4625F0BBFF27F0D5F90ED1DFF840078DF8406021462A460023C08AEC
:2004FC00ADF838000EA825F0ABFF8DF8180006AB6520292160E327F0A1F9ADF83800681D1B
:20051C00042124F0BBFA6A7AAB7A0024014600940EA824F00BF88DF8180006AB65203021D8
:20053C0084E227F08BF927F0B9FA312201238DF8580016A8CDE90004DFF8F0060EA91FF075
:20055C0057FD8DF8180006AB652031216EE227F075F927F0A3FA322201238DF8580016A86A
:20057C00CDE90004DFF8C4060EA91FF041FD8DF8180006AB6520322158E227F05FF927F01A
:20059C008DFA332201238DF8580016A8CDE90004DFF898060EA91FF02BFD8DF8180006AB39
:2005BC006520332142E227F049F9ADF83800687B0024691D0094C0F3400200F001030EA82C
:2005DC0021F054FB8DF8180006AB652034212DE227F034F96A7BADF83800691D0EA8002303
:2005FC00002424F049FC8DF8180006AB652035211CE22C4614F8030B04281ABFE8782C1D01
:20061C0002208DF84000204627F0F1FBDFF81866A5780121E278ADF83800002300243170BB
:20063C000EA829461DF020FC8DF818002846347024F05EFC06AB65203621F7E127F03DFB7F
:20065C00ADF83800687904218DF84000A81D24F015FA0446AE7AEF7A05F10C0027F0C7FB38
:20067C00DFF8B0850546214632463B4626F0A8FF0EA81FF099FC27F0FFF810D10220214618
:20069C0032463B468DF84000B8F81600ADF8380026F096FF0EA81FF087FC8DF8180006AB9C
:2006BC006520372188E26C7827F007FB0146DFF8740500781EF064FE8DF8380004F0E000CA
:2006DC00202840F07C820EAB65203E2174E26C7827F0F3FA0146DFF84C05007820F00AF9B3
:2006FC008DF8380004F0E000202840F068820EAB65203F2160E200206C788DF83800DFF873
:20071C0018050078411E022980F09481022095E127F0D3FA27F0BDF98DF838000EAB6520D5
:20073C00422149E2002006908DF83D00CDF83900E81C06A924F0B4FF8DF83800069850B1C3
:20075C0026F045FF81788DF83B10C1788DF83C1000798DF83D000EAB6520432106222CE23D
:20077C00E81C26F0A7FA8DF838000EAB6520442122E227F0A2FA6979AA790DF0C7FA8DF843
:20079C0038000EAB6520452116E227F096FA6979AA7919F0D3FB8DF838000EAB6520462184
:2007BC000AE2EC7827F083FA0146204621F012FBB0FA80F0472140098DF838000EABC1E18B
:2007DC00E87800248DF8384021F0DAFF0EAB652047212BE1E8780EA924F086FF06468DF85F
:2007FC00180040000130C5B2284627F004FB002800F0A381044600F8016B00219DF8182081
:20081C00914280F0BE809DF83830013100F8023B9DF8393000F8013CF2E70EAC1321204677
:20083C0026F08EFCEE7827F042FA0146304624F087FB002800F088810021231D8DF83810A1
:20085C0026F0C5FEC11C827818468DF83B2026F0BBFD7CE10020EC78CDF84600CDF84200CD
:20087C00CDF83E00CDF83A0027F021FAAA79ADF838000F2A28BF0F228DF83A2022B10EA86F
:20089C00E91D033026F0A0FD0EA9204601221BF0C3FD8DF8180006AB65204B218CE126F083
:2008BC008BFB8DF838000EAB65204C2184E1E87829798DF838100EA9032800F05F8102281E
:2008DC0000F06281012840F06681522020F056F864E127F0F2F969790246A81D1AF0EAF8F7
:2008FC008DF838000EAB65204E2165E127F0E5F90146687918F018FF8DF838000EAB6520F5
:20091C004F2159E1C34D0822E88A05F13901ADF83800C24800788DF83A00A88CADF83B0003
:20093C00688BADF83D000EACE01D26F04DFD04F10F0005F11C01082226F046FD287E5021FE
:20095C00182223468DF84F00652036E1B2480078002800F0018112200AE11FF071FA2EE1B6
:20097C0000208DF83800E878010606D5A94910F07F0018BF012081F868000EAB6520532140
:20099C001AE1652049212A46234620F013FB39E180208DF863003E78102E52D80DF118097B
:2009BC00013734464D46002C4DD0384627F01FFA25F8020B013C0237F5E780208DF86300DB
:2009DC0027780F2F54D801340DF1180A3E46002E50D0204627F00BFA2AF8020B013E0234A5
:2009FC00F5E7084627F003FAADF81800687E06A926F0E2FC0EA921201AF08EFA8DF85800F0
:200A1C0016AB6520212111E0084627F0F0F9ADF81800687E06A926F0CFFC0EA922201AF0BD
:200A3C007BFA8DF8580016AB65202221012220F0C1FAC5E0002840F0B580042008F0B8FAD1
:200A5C00B3E080200DE0BBF1100F0CD80EA9002052465B468DE84202039016A8414614F006
:200A7C003BF98DF863000DF1630365200621A3E080200FE00F2D0FD80EA9002002974A46F9
:200A9C005B46CDE9005106A9CDE9031016A8414614F0CAF88DF863000DF1630365202021FD
:200ABC008AE016A90EAD2A4617F0EAFD04469DF85800F0B1614904EB4400002641F8206044
:200ADC0001EB800046609DF94B00B0F1FF3F03DC05F1130021F0B4FB0EAD1421284626F00C
:200AFC002FFB0420214614222B4623F02FFF8DF8186006AB652024215EE0182027F07BF9C4
:200B1C00002800F083800446BDF8380000211822234626F0E7FA0546002818BFC82519203C
:200B3C0027F069F9002867D007460130002D4BD01821FF2226F0FEFA50E0002049218DF854
:200B5C00180006AB652037E001208DF838000EAB65204A21132230E027F0AFF8044605F14A
:200B7C000D0027F044F90246691D204623F0F4FC8DF838000EAB652051211DE052201FF0D6
:200B9C00FDFE2748002104E052201FF0F7FE24480121017002E0522023F036FD0EAB65207D
:200BBC004D2109E001208DF8380004F0E000202805D10EAB65204021012220F0FBF9002408
:200BDC00204619B0BDE8F08F3146082226F0FCFB07F109002146102226F0F6FB652025218C
:200BFC0019223B463D7020F0E5F93846192126F0A7FA384627F0FDF8002CE0D0204618210E
:200C1C0026F09EFA204627F0F4F8D8E7C825FFF7E4BB00BF70F70020A80C00207C0A0020A0
:200C3C00C30E002034030120820E00200C0D00202D4D0200295202000541010014CC002026
:200C5C000B7E02002DE9F04F99B081466FF00700DFF8DC880630ADF8520098F80000022800
:200C7C0014D1DFF8C808007880B9B9F8080010B11020012101E03020002109F0EDFF0020F8
:200C9C008DF81C0007A952201FF078FE0DF11C0A99F80810D9F8040052460FF007FCE8B11B
:200CBC009DF81E709DF81F409DF82050BDF8266026F076FD844211D145EA070001280DD84C
:200CDC0026F003004FF6F87580B2A84206D098F80000022808D19DF84D0028B1D32014F0F6
:200CFC0008FC19B0BDE8F08FB9F82800ADF84800B9F83200ADF82A009DF82200D0B1D9F866
:200D1C0004109DF81D209DF83830012025F036FB08B1CF20E3E7DFF81C08C078012809D1C5
:200D3C00B9F8280026F041FF20B1417901F0E701083141719DF8210068B1BDF82610FF2040
:200D5C0024F0FEF89DF82110E0B141F001012C268DF8211017E09DF83900002800F0058178
:200D7C009DF83D10FF2902D0002940F02A81DFF8C807BDF82620C18A8A4240F02B810120C2
:200D9C00222607E0082601F00300012808BF46F01106012098F800103746022938BF67F0F2
:200DBC007F07B20748BF3746002808BF37469DF82200002800F0818017F0400B1ED00129AE
:200DDC0005D8DFF87407807B800700F1E780119801780C2900F2E880012241F298438A4042
:200DFC001A4200F0E180032902D140780D2805D007A821F0A0FE01283FF473AFDFF8384737
:200E1C00B9F84410A08C81420AD199F84620B9F84210B9F8280000230093002307F058FCF0
:200E3C009DF82200F8B1B9F84210B9F8280021F0A3F8002800F082800646D9F804009DF8DE
:200E5C001D10F2780844417B8A421EBF00227260F1700130042123F011FE71688842FFF4CB
:200E7C0040AF0130706098F8000002283ED2A07B80077FF536AF9DF84D0060B1BDF82800D1
:200E9C0025F074FC002800F01681D9F80400417801F0DF0141709DF82E00002800F0EE80A9
:200EBC00D9F804008179013981718DF82E1007F07F00090640F0E580E2E0DFF87C06C07AE9
:200EDC0000283FF479AF07F0220022283FF474AFF8B200F0420042287FF41BAF1198007816
:200EFC0000F0FE0006287FF414AF65E77FF4F9AE94F82600092802D004287FF4F2AEF8B280
:200F1C00800600F18980BBF1000F3FF4EAAE11980078033809283FF6E4AEDFE810F057013C
:200F3C000F010A000A005C010A000A000A000A000B00D6E607A814F031FBD2E69DF84D00AC
:200F5C0000284ED0042024F09DFA00283FF4C9AE01464FF4B2700880B9F828004880DFF8E2
:200F7C00DC0500781CF020FEBBE6BDF8260020F061F80238DFF8C015B0FA80F0CA8A41094F
:200F9C00BDF82600904208BF0231002942D09DF81E20002A5AD001F1400759E01198017898
:200FBC004A1E0B2AFFF41FAFDFF88C05BDF82620C08A82427FF492AEBDF8280022F03EFC6A
:200FDC008CE6109A9DF83C001FF0C8FB30B101200026DFE690F826000428F8D10026002060
:200FFC00D8E694F86C0001287FF43DAFBBF1000F04D01198007806283FF435AFE81DBDF8E8
:20101C002A1080B281423FF46CAE07A849461DF0B7F866E600271BE099F8460026F0B4FA35
:20103C009DF82E00012840F0CA80B9F82800BDF82810814240F0C380BDF826001FF0FAFF4F
:20105C00022804BF00208DF82E00B8E001F120071FF0F0FF0138B0FA80F0400947EA000632
:20107C009DF81E0000283FF494AE1198007825F0B9FB012818BF07F07E068AE607F07F00B9
:20109C000746390702D44FF0000B34E0F9B24A0722D4C9069DF8211028D5C1F3820212B1F4
:2010BC00072A18BF013A002A08BF074601F0E30040EA820118E0D32014F01BFADFF88004B3
:2010DC000078002800F0A380DFF8781451F82000C0EB001081009CE09DF8210000F0E00136
:2010FC0000F0E30040EAD1018DF82110D9F804004FF4805B017294F82600092801D0042809
:20111C0026D1E18ABDF8260088420AD01FF092FF022806D09DF8210000F0030001287FF4ED
:20113C00E0AD9DF81E00002845D01198007803284CD007284FD004287FF4D3AD9DF8380074
:20115C0002287FF4CEAD07A9002011F00DFBC8E5FEB217F0610F47D0F00708D0B9F82810DF
:20117C0007A814F065FC002866D007F09F074FF00008FEB2B80609D599F84600D9F83C20AD
:20119C0026F002FA07A815A905F0BCF9700640F14B81B9F8281007A80DF1520243460FF025
:2011BC0001FA00286FD0804611980078012808BF4BF0100B38E199F8460026F0E5F9D9F8CF
:2011DC003C2007A815A905F09DF98AE507A800210EF076FE85E59DF8380004287FF481ADEA
:2011FC0007A816F00DFE7CE59DF81E0001285AD111980078032849D0052854D1B9F828100B
:20121C0007A80DF1520200230FF0CCF969E5CD480168CD480268BDF82800904701287FF42F
:20123C0060ADCA480168BDF828008847C8480168BDF82800884754E524F0E6FC9DF82E1037
:20125C008046BDF8280019B9B9F82810884290D0E18A814204D1B748807801287FF489AF1C
:20127C00B9F8281007A8424608F040FD002800F0C18030074BF0040BBDF8260048BFE81D3C
:20129C00ADF8520075E74FF00008CDE0BDF8260025F06CFA38B1B9F8281007A80DF15202C2
:2012BC0000230FF07FF99DF82E0098B322F0D8F800287FF416AD9DF83900B0B3109A9DF8BA
:2012DC003C009DF83D101FF049FA002800F095809DF83D00002800F09A80109926F02EFC68
:2012FC009DF82430ADF8520011209DF823209DF821104BF0400B002B08BF0920002A18BF81
:20131C000830002918BF0130D9F804100A5C013A0A5486E09DF81E0001287FF476AE1198E2
:20133C00007803283FF4DDAC6FE6BDF826003107ADF8520025D49DF8201011BB9DF81E1086
:20135C0001291ED0002117F035FE18B140790138022816D3B9F84410BDF8520020F00CFE0A
:20137C0028B1807824F080FE0138072809D3BDF8280025F0FBF9002800F0D18004208DF8B2
:20139C0020004020BDF826100AF11D0200EAC7049DF82000234617F041FB38B1D9F80400D8
:2013BC004BF0200B017801F03F0101709DF8390048B1BDF826100AF1200020F00DFB4BF070
:2013DC00400BADF852009DF81E00012806D0BDF82810BDF82600002213F088FEBDF828109D
:2013FC00BDF82600224611F02DFC002818BF4BF0200B16E007F0DF07B9E6BDF82610BDF8ED
:20141C0028000B22002319F0E3FAFFF76ABCBDF82600ADF8520026F0C8FB002808BF4BF061
:20143C00400B24F0F1FB8046A81DBDF8521080B20E1A484818BF4646007801282BD1E81DB4
:20145C00B9F8321080B2814225D0B9F82810814221D0681CBDF8262080B282421BD2BDF8DF
:20147C002800814217D026F0A0FBA0B101790139012910D8408801218DF85410ADF86000DE
:20149C0015AD28461DF0C2FA28B1281D1CF0B0FA08B120F073FB78B2B0F1FF3F3FF721AC20
:2014BC00002E3FF41EACB9F8080026F0A4FC00283FF417ACB9F80820D9F80410054625F03A
:2014DC0083FF9DF81E10002099F80830B9F8282016908DF85410BDF8521015ACCDE9006B41
:2014FC00CDE90204284610F095F920B1284626F080FCFFF7F6BB0F48407800283FF4F1AB9A
:20151C0000208DF81860ADF81900DDF826004FEA3040059005A825F0DBFDFFF7E2BBBDF8B9
:20153C002610BDF8280002226CE700BFC30E0020A80C0020600C002070F700203603012014
:20155C00B50E0020F0920200EC090020F4090020F0090020C10E00202DE9F0438DB00546FD
:20157C0080780224252800F27380DFE810F02600A400C400D700EA00F8000601B602B6027A
:20159C001D012E01B602B602B602B602B60246014B01B602B602540158016101B602B602C7
:2015BC00B602B602B602B602B602B602B6026B016E017101740178017F01DFF8D475002408
:2015DC000E258DF804403878012807D801A81BF01DFE04469DF8040005EB4005EEB230463E
:2015FC0026F009FC002800F087824FF000080546431C0021082280F80080012025F072FDBA
:20161C0026F0D4F86872000A0721A872DFF88405E972007828733878012800F262829DF894
:20163C000420002A6A7300F05E8205F10E0000212346914280F0578213F8022B013100F887
:20165C00022B13F8012C00F8012C9DF80420F0E7A0F140010D291FD8DFE811F00E0010016E
:20167C003F023F021E012E013F023F023A014501500165013F02740101ACE91C0822201DF5
:20169C0025F0A2FE204619F0BFFABDF806004021ADF828000AABEEE0632800F069816428F4
:2016BC0000F07681E02840F0188200244720E021002200230FE2202026F09DFB002800F08D
:2016DC00C1812021FF22044625F034FD631C01200021082225F006FD0546002818BF012547
:2016FC0001AB84200021042225F0FCFC002800F00582023506E2E81C26F079FBADF8040035
:20171C00832026F09EFA014601AA832026F062F98DF828000AAB6720022190E1E81C0421B0
:20173C0023F0ACF90190842026F08BFA014601AA842026F04FF98DF828000AAB6720032104
:20175C007DE1612026F07DFA0146EA1C612026F041F98DF8040001AB672004216FE1622030
:20177C0026F06FFA0146EA1C622026F033F98DF8040001AB6720052161E100208DF80400F0
:20179C00E81C26F034FB6A7900F4F851002A00F04981B1F5A06F04D04FF6FF71884240F0A8
:2017BC004B814FF0FF3045E126F0EDFA044625F0C1FFD949604301ACB0FBF1F1204626F016
:2017DC0088FA672009210422ABE0DFF8B4632D79306840B901AC204625F0B3FE0120214683
:2017FC000DF0AEFC3060052D00F06981002D00F06981642120F078FD66E115F8032B672070
:20181C0010216EE0E87820F04FFE8DF8040001AB6720112113E100246720142102E00024A8
:20183C0067201521ADF80840019401AB062252E100246720162109228DF80C40CDE901446D
:20185C0001AB48E1F52020210BE0F520212108E0F520222105E04FF6F570232108E0F520EF
:20187C0024218DF8040001AB6720E8E0F5202521ADF8040001AB67200222E1E0E81C26F04D
:20189C00B6FAADF8060001AC204616F075FA231D672041210822D3E0E81C0AA924F0E8FE92
:2018BC0000288DF8040000F0CF8001A81821FF22013025F03FFCF4E0E81C0AA924F0D8FE23
:2018DC0000288DF8040000F0F1804FF0FF30EFE015F8030F697820F0EBFC2880672048210E
:2018FC0002222B46ACE0E87823F0D6F901AC0146204617F01FFD6720492111E0EC1C20469C
:20191C0024F000FC002818BF2046B5F80B1018F035F901AC0146204617F00CFD67204A21DC
:20193C00242223468CE001ACE91C0822204625F04BFD204625F0FAFA8DF828000AAB672079
:20195C004B217CE04FF0FF3095F80380691D0190ADF81000CDE90200FE208DF80600287957
:20197C0003288DF8300020D10AA826F000FA21E00024E91C08228DF8284001AD284625F046
:20199C0023FD28461CF034F80AAB67206321A1E0B5F80B006A7B0024E91C8DF8044009F09C
:2019BC00CBFA01AB6720642194E0084626F01FFAADF82800AF7B002F00F0DD807E0095F81F
:2019DC000D90304626F017FA002800F0D48005F10F013246044625F0F7FC00940AA94046A8
:2019FC004A463B460CF098FD002800F0BA80837801784278057946798DF806308DF8041018
:201A1C008DF80520C3788DF809608DF808508DF8073001A98B1D811D40794200184625F0E0
:201A3C00D3FCA5E0B1F5A06F03D04FF6FF71884202D100205549086001AB672006210122B9
:201A5C001FF0B8FA002448E0182026F0D4F940B3BDF828100446009006200022182322F0F3
:201A7C005FFFB8B9BDF8285001AE21461022701C25F0AAFC444F05EB450506F1110057F89B
:201A9C00251026F026F907EB8500416806F1150026F01FF92046182125F052FB204626F0E9
:201ABC00A8F901AB672044211922C9E7BDF82800ADF8050001AB672045210322C0E7314980
:201ADC0001220A701FF075FE002467200A218DF8044001AB01221FF06DFA20460DB0BDE81F
:201AFC00F08385F80D806720002132462B461FF061FA284626F07DF97CBBA3E7019800BA44
:201B1C00C4F809000AAB83200021022225F0EAFA20B1043506E000BF40420F00BDF8280031
:201B3C00A4F80D0004F10F0361200021012225F0D9FA002818BF083504F110036220002145
:201B5C00102225F0CFFA002818BF1035234625706720012120221FF02DFA204626F049F938
:201B7C0070E74FF6FF70ADF808006FF480300190204626F03EF901AB67204D210E225FE723
:201B9C00CC0201207F0E002020FE0020AC020120A80C00207C0A00202DE9F04F85B0847880
:201BBC000226362C00F2BE820546DFE814F06C01740172007C017800BB02BB0281003700BC
:201BDC004C008C009F00AD00BB02B5009001BB02BB029A01AD01BB01BB02BB02BB02BB024F
:201BFC00BB02BB02BB0237004C00BB02BB02BB02BB02BB02BB02BB02BB02BB02BB02BB02F0
:201C1C00BB02BB02BB02BB02BB02BB02BB02BD00EB00CB01FF005B005B00DB0126F041F829
:201C3C00242840F0AA8102AB352000210422002425F058FA002800F0FC81012002228DF8AE
:201C5C0010000020FCE100208DF8100026F029F80646092C40F0ED8095F8059095F806801C
:201C7C000720EFE0DFF82465306880B1406A70B102A926F01FF80546342C40F02C8228468F
:201C9C0026F0B5F8002800F02582042041E203203FE2DFF80835612002210A223FE202AC68
:201CBC00E220214622F0B0FC61200421082288E125F0F7FF0446681D26F099F8242C40F0A7
:201CDC0087810020FBE1E878032800F29781281D26F08DF80246E878DFF8B81431F81010DB
:201CFC00DFF8B404007825F0F1FF88E1E878032800F28981DFF89C1431F81010DFF8980489
:201D1C0000781BF097FB7FE125F00EFFADF8080002AB61200C2103E1002661200E2101222B
:201D3C008DF8086002AB1BE2DFF8606401208DF810003068002800F02C810069002800F0C1
:201D5C00288102A925F0B6FF042122F097FE002800F0EC81044626F04EF8002800F01C819D
:201D7C002146054625F0ECF93068BDF80C1022462B4606690298B0478DF81000284626F040
:201D9C0038F809E1DFF804442068002800F008818069002800F0048102A925F08BFF20686D
:201DBC00BDF80C10826902989047FAE0DFF8DC733868002800F0FB80C069002800F0F780EF
:201DDC0002A925F077FF9DF80850BDF80AB0BDF80C90044626F00BF8A6788046F72E28BFB1
:201DFC006FF00806B01C5FFA80FA504626F003F8002800F09D81012D044608BFBBF1000FE4
:201E1C0000F09A813868A11CF3B24246C569029800914946A8470746002840F0938100275A
:201E3C006120332152462346667027701FF0C2F888E1681D25F0DBFF8146E81D25F0D7FFE6
:201E5C008046092002AF242E18BF2F1808BF3526304609EB080525F0F4FE854201D90220F3
:201E7C0057E1B9F1000F04D1304641463A4620F00FFE304641463A4625F0ACFD002800F093
:201E9C00E5800A2045E1E878012802D0002840F0488125F001FB40F259600121ADF808002A
:201EBC0002AB61203CE00120EC1C8DF80800E22021461EF063FD30B901200821224625F07F
:201EDC0089FD8DF8080002AB6120032126E1E878291D012800F0E180002840F0E580E0209D
:201EFC00DFE025F0DEFE0446681D25F080FF242C0FBF00200146204625F04DFE8DF80800DB
:201F1C0002AB6120122109E125F0CBFE24280CBF002025F096FEADF8080002AB612013218D
:201F3C000222FCE0E8788DF8080099488068D0F8302402A9E02090478DF8100004AB61206C
:201F5C001421EBE0914C206898B3806A88B302A925F0B0FE2068BDF80C10826A029890476C
:201F7C00014627E0894C206868B3C06858B325F098FE2168C968884726E080466938002685
:201F9C0080B2032838BF0126681D082C40D1057841E003208DF8100004AB61203021BDE06C
:201FBC0003208DF8100004AB61203121B6E00327CDE0002102AC204625F08BFE61203221B7
:201FDC0004222346ABE0032025F095FD3621A5E005F10806ED790146A8426CD920460022BD
:201FFC0025F0F2FC09288DF808006AD1002D68D020462946324625F0EDFC62E0022025F0A0
:20201C007AFD0A218AE0022025F075FD0B2185E025F0EDFE0546404625F013FE0227A84254
:20203C0088BF7700CFB100268DF808706120214692E002988DF810400422ADF8120002205B
:20205C008DF8110004AB6120082168E0012E62D1E22039461EF092FC5BE0471BB8B2F72888
:20207C0028BFF727B81CC6B2304625F0C4FE002860D01FFA87FB00F10209824648465946C2
:20209C0025F05EF8404629465A464B4625F02AF80546002867D00A2770E00878022814D2A1
:2020BC0052201EF06BFC00E002208DF8080002AB61200F2132E02046324625F085FC8DF825
:2020DC00080002AB6120072128E002A9522022F09BFAECE702359DF8080015F8018BBDF8C5
:2020FC000C7001280ED1BDF80A0058B9384641462A4620F0CDFC012F04D1E22029461EF09E
:20211C003DFC01273068394642462B46466A0298B0478DF8100004AB6120214601221EF094
:20213C0049FF0026304605B0BDE8F08F052031E710270CE0102776E7A9F169000328BFF4F1
:20215C0061AE0227204625F054FE002FE9D000268DF80870612033218DF8096002AB0222BF
:20217C001EF028FFDEE78AF80170002761202146324653468AF800701EF01CFF504625F070
:20219C0038FE002D7FF44FAFCBE700BF400E00200C010020E897020034030120849702004D
:2021BC002DE9F04F8FB00C4648070FD4200441D4E00400F19781200600F1C081A00700F1D5
:2021DC00D481200500F1F3810020B4E1DFF820050178062900F2AD81DFE811F00700940127
:2021FC00AB01AB019901AB01A001DFF81055DFF804152A7891F82B30022A02D19E0600F13E
:20221C0098815E0700F19D819B0740F192810423037091F82C30DB0700F08B8191F82E30EB
:20223C00002B00F0528223F0C7FF0420012102F077FA57E2DFF8C8040394DFF8BCB4DFF880
:20225C00B094DFF8C474DFF8AC44DFF8B054DFF8BCA448F20208008802909BF800001BF03A
:20227C0017F9002800F03A8106460078D3282DD1F089404540F019813878002800F015817C
:20229C0099F80000012840F0108125F005F8002840F00B817088002840F00781A24604AC41
:2022BC001221204624F04CFF25F0BCFA3046214617F0AEFBBDF81C00B0F5285FC0F08880FD
:2022DC00012002211DF048FF54462AE099F80010884217D1012834D0032840F0E6802878C5
:2022FC000138012800F2E180B078012851D0002840F0DB807078002800F0BF8000201CF07D
:20231C0015FDD2E00A2811D194F82B00BA46B71C3071A16909B138468847384623F044FCBC
:20233C005746DFF8D853DFF8E4A3BEE02978002940F0BB80092840F0B880A168B01C884774
:20235C00B3E028780138012800F2AF80707860B194F8330094F83410013084F83300C0B2D1
:20237C00884202D9012000219DE099F80100032858D0022871D0012840F097803878002845
:20239C0000F08C8024F088FF002800F09280012085E07078002875D025F008FA4FF6FE71BA
:2023BC00884203D1BAF81600884207D0AAF81610ADF8281053200AA91EF0E0FA1DF040FA00
:2023DC0023F052FC00208AF826001CF07FF96CE0CF48006809A90AAA16F052F907460298CB
:2023FC005446C64DDFF824A3874212D29DF8380010B1FD208DF838000420394614220AABD3
:20241C0022F0A4FAC34907EB470001EB8000012141720020012184F83200012002F080F9EE
:20243C00B94F42E0A2460AACAB20002122461BF0B3FA042004945446DFF8D0A2AF4D8DF88C
:20245C00140004A80EF058FE25F0ECF99BF800004FF4805141F288321DE0012020714FF4CC
:20247C008060ADF828000AA817F0FAFF25F0DAF9A4484FF4805102680BE00FF01BFB6069C6
:20249C0098B9A2E702204FF4805140F6B83289F802009BF8000025F019FC06E0002084F82E
:2024BC0032000120012102F03BF9304623F066FED3E694F8350020B1E0690028F5D0804730
:2024DC00F3E70020002102220023ADF8280002208DF830000AA823F0B3FFB5E7039880F4B8
:2024FC00004028E0854800780138012859D88048017803294DD0012953D1417800201DF0E2
:20251C002BFE4EE0012001211DF026FE11E023F053FE0420012102F003F90AE000213222EC
:20253C000170744880F82A1073480421007825F0CDFB84F004000FB0BDE8F08F84F080001C
:20255C00F9E70522027091F82C2092072CD591F82E204ABB052202600120487000201BF00E
:20257C00D9F8022023F0D2F8E3E764480078013801280BD80020CDE90A000AA812F0A4FA0A
:20259C0020B15D48022100781AF084FA84F00200D1E78178022904D10121817000201DF01F
:2025BC00B7FD84F48050C6E705200021B3E753480078002840F08680DFF838A1DAF80C5027
:2025DC00002D79D004A80DF1280B01300BF104060390002D6DD0A87A18B10138A872000614
:2025FC0046D19AF83180B8F1000F11D00020A91C08228DF82800304624F0E6FE584618F0FC
:20261C0003FB28B12A88BDF82A00314621F0A4FFAF1C0DF127015A46384616F031F8814606
:20263C00384609A921F011FDB8F1000F05D09DF8380040F0020002281CD1DAF80800A0B161
:20265C0003983946082224F0BFFE022000220C238DF81000BDF82400ADF81A0026480078C3
:20267C0004A9009109211FF020F928461CF046FFED68AEE7384622F040FA9DF82700012856
:20269C00DBD15846142124F05BFD224A09EB490000215B4642F8201002EB8000142241601A
:2026BC004172FF2049468DF83800042022F04EF9C3E7DAF80C0028B90F484FF40061007887
:2026DC001AF0B8FE84F4006035E7013A012A09D8032202600120487001201BF01BF8012023
:2026FC0023F014F8287800287FF423AF04205CE7B0020120380800203D030120A80C0020C3
:20271C0034980200480E0020980E002070F700208802012014CC00202DE9F04F9BB0DFF8EA
:20273C0018850546DFF8146598F800000328307040F04F81002000211822082388F80000C4
:20275C0030700CAC204624F0E5F92046002122F029F9DFF8EC94B0603A21484624F0F0FCA2
:20277C004FF0FF30A9F81400C9F81000C9F80C0021F058FE002029461DF066FA06F1100111
:20279C00F06025F085FAD6E90502DFF8B874B0FBF2F1C9B2032928BF032189F800103970F6
:2027BC00B2F5005F40F01281B0EB413FC0F00E81F068002800F00A814FF40050FF224FF0EC
:2027DC0000084FF0885BA9F80600FF2089F8032089F8058004900020079000200A9000201E
:2027FC00089000200690002005900020099000200B90FF200190FF200390FF200290CCB2B5
:20281C00A04580F0E9805FFA88F600211AAA0423304624F0A9FDDFF834443046002119AA22
:20283C00A0473046012118AAA0473046022117AAA0471A996FF06F0050FA81F2C8B20E2A23
:20285C0006D8012303FA02F245F201131A4203D1A0F1FE02022A04D242F28352B2EB914FD5
:20287C001ED0304614F008F8DFF8D0130028087040F0D280304600211AAA042324F074FDF1
:20289C00DFF8C8433046002119AAA0473046012118AAA0473046022117AAA0471A99C8B24A
:2028BC0008EB4802CA463D4609EB8209C1F30142090A4C46FD2804F8160F61709DF86610EF
:2028DC00E270A17001D9102135E0BDF864104FF6FF7291422FD112A81FF092FD30460021B8
:2028FC004FF088524FF400534FF4005724F03CFD6FF0030313FA87F7B8B250F80B104A1C03
:20291C0001D10328F6D801220126D3B2042B06D8CBB2FF2B18BF16460132090AF5E740F8C0
:20293C000B10CB48129900684268CA48904757FA86F081B22078A9F81C109DF862107028A9
:20295C0089F81A10BDF86010A9F81E109DF85E1089F81B10BDF85C10A9F8201011D078289A
:20297C00D14614D07C282F4616D07E281AD0FE281FD0FF2823D10798CDF8088001300790CD
:20299C0020E00998D1462F46013009901AE005982F460130059015E00698CDF80C8001303D
:2029BC0006900FE00898013008901FFA88F0019008E00A98CDF8108001300A9002E00B98BC
:2029DC0001300B90397808F1010818E7012088F800001BB0BDE8F08F0B98984E00060BD162
:2029FC000A98C0B2012807D80998C0B2012803D80898C0B2012811D99348042200240270CC
:202A1C00CAB2E0B2904210D213F036FF31780134084339783070F3E7884E1BE0079BD8B24F
:202A3C00A04219D1884800220270002089F8030089F80100481E7E2189F80200B9F81C00CF
:202A5C00A9F80600002020F0E5F999F80200FE2120F0E0F93078BCE70998000624D00A9882
:202A7C00049A000603D1029A180600F08480764802210127D5B289F80220017017FA82F0ED
:202A9C00B0FBF4F101FB140089F80100284613F0F3FE30702846FE2120F0BCF989F80570AE
:202ABC00002000F075FBD5E70A98049A000621D06548012189F80220017011FA82F0039A8A
:202ADC00B0FBF4F101FB140091B2FF2989F801001FD10199FF2919BF89F8031001EB410002
:202AFC0089F8030000EB400009EB8000808BA9F80600AFE7DDE90520104300063FF47CAFAD
:202B1C0021F064FCA04280F085804F48032101703EE0480089F8032010FA82F009EB8000AB
:202B3C00818B1829A9F8061094D30739D0B212AA89B215F06BFE9DF853004007B0D5B9F882
:202B5C000610BDF85620002399F8030000930323891A12AA073989B207F05CFA00287FF4E6
:202B7C0079AFBDF8541000293FF474AF9DF858001CF0D6FA6EE721F029FC0621A0423248A2
:202B9C0038BF03210329017002D0062952D061E721F01CFC054689F80C0000EB400009EBD6
:202BBC008000408BA9F80D000CF0F4FD39782844B0FBF1F202FB110089F802000130C2B232
:202BDC00B2FBF1F202FB110089F801007C2020F03BF9FF2812D17E2020F036F9FF280DD1ED
:202BFC00FF2020F031F9FF2808D1782020F02CF9014699F80100FF2918BF0846C1B289F879
:202C1C000300490051FA80F009EB8000808BA9F806001AE70798000609D099F80200FE213A
:202C3C003C46374620F0F6F82478029A40E7064806210170FEE700BF750E0020D8000020F7
:202C5C0008FC002035030120410301206D750200D8010010004003402DE9F04F89B01FF089
:202C7C0053FEDFF8EC148122DFF8F084DFF8F0A4DFF8FC74DFF8F0E40A70DFF8D814086020
:202C9C00DFF8D404FF2101700020DFF8E014A8F800008AF80000DFF8CC040968007891F8B2
:202CBC0008B04FF6FE718EF8000059448AB2B968D1F80031DB899A421BD80422DFF8B844E6
:202CDC00A8F80020DFF8AC24126893681D0ACEF80C30C3F30159AEF804501D0E2570D1F840
:202CFC00B850B9F1020F2E780CBF002EB9F1030F10D123F0C7FE25F054F8DFF878140024F9
:202D1C000A6813681C7112680A6025F052F809B0BDE8F08FC3F30F2505F007050EB1002D26
:202D3C00E7D0DFF858C4042D9CF800C008BFBCF1000FDED036B1DFF848643678862E01D179
:202D5C00022DD6D19D0216D403F4E063B3F5007F08BFBCF1000F1ED0DFF8241409788629E7
:202D7C0009D1002075461FF007FEDFF81004AE4690F800C02878BCF1000F49D1002847D092
:202D9C000128B6D003283CD0022841D1BEF804004007AED13CE0D1F8D40090F88300022887
:202DBC0077D0A1460520147BF246A8F8000024F0F8FF0546DFF8C8030078862866D1B868C8
:202DDC00016C096811B9D0F84C05804760B20021002625F056F8B9680A6C12685077086C47
:202DFC0000688677086C0068C477284624F0E1FFBAF8041099F8000001F010011BF0BAFCBF
:202E1C0047E0BEF8040000F0070003287FF471AFBEF8040001073FF56CAF810402D481050E
:202E3C003FF567AF9EF80E10C1F38105012D3FF460AF8E09012E3FF45CAFB9F1010F11D827
:202E5C0040F0020101F0070103290BD155EA06013FF44FAF35B9B968D1F8AC10097800296D
:202E7C003FF447AF4FF6FB71B9F1020F594413D1C54A535D925D02EB030945EA06024306F9
:202E9C0015D4002A18BF09F1020914E0284624F090FF23F0B5FB2EE7BA4A535D925D02EBBA
:202EBC00030946B1420648BFA9F1020903E0002A08BF4FF00209C0F300205FFA89FB8BB2F4
:202EDC00ABEB00028EF801009A423FF712AF0844B968A0EB0B00AEF806007430D1F8501266
:202EFC0080B28847A049002888603FF402AF7421CDE901B90396AB4624F022F99A4F002011
:202F1C00B8709E48007820B9387900F020008AF8000078789AF80010964E4FF000092546CA
:202F3C00002993492CD000284FF0000029D1B88800F00700032807D0012821D18868D0F807
:202F5C00D40090F88200D8B1C8684069007818B123F060FFFE280DD085488068D0F84C0294
:202F7C00804738B982488068D0F844028047002800F0EA807C4F0120B8707E4E254600E049
:202F9C000020BC6804F1740184F83AB06160A1657978BB88FA880029A381039B228184F87A
:202FBC0030302B7808BF994697F80EB084F84990A4F85C20FF22B8F80030A273CBF30119A4
:202FDC005D1A797B029FA8F8005001F0780160F3820101EB09002074380600F0AD8030681D
:202FFC0004AE019A10FA85F000F10801304624F08FFF55FA87F0CBF38105A8F80000207C91
:20301C0000F04007E5B3B9F1020F00D13FB9BDF810000236A4F84400A4F8420002E0B4F8F8
:20303C00440004AEDFF86481B8F80E10884204D04FF6FF71884240F08280032D12D104F19D
:20305C003200314624F093FE474C08F10301A068323022F014FD4649002870D094F80EB0A8
:20307C0008360FE036F8020BB8F80C108842608606D04FF6FF713C4C88423D495FD101E0DC
:20309C003B49394C0020B0EB9B1F22D04FEA9B10B9F1020F08D157EA05010DD136F8021BBC
:2030BC00A268A2F8421007E0A1680A7C52065CBF36F8022BA1F84220032806D1A06831463E
:2030DC00283024F054FE284C02E03088A16808852749A0888968B9F1010F11D8D1F8AC20B1
:2030FC0012786AB140F0020202F00702032A23D135B9264AA368D289B3F8423093421ED11A
:20311C0000F00700032806D0012815D1D1F8D40090F8820080B1A068D1F848128847124E5A
:20313C0050B90020F17BB070B07BC1F3011100F078000844B168087408F0C6F9DBE515F008
:20315C009EFA17F0C9FFD6E5074FB87815E700BF4A030120DC0201204F03012046FF0020AB
:20317C004D0301204C030120AC0B00201C0301200C010020700201205D0301205C0301207A
:20319C0052030120D4970200D0970200980101202DE9F04F9BB00446DFF80805406818B1CE
:2031BC008047002800F03C82DFF8FC04DFF8FCB40B940DF1300A4FF0F8080078411E002CDF
:2031DC00099118BF01218BF80F109BF802900BF118049BF80110002700250A91C0B287429B
:2031FC001FD2B94517D0FEB2002152460423304624F0BAF80C9810F4403F40F0040018BFDF
:20321C000135C0B27C2806D130460621F82223F053F884F80080DFF890040C340137007803
:20323C00DCE7E9B201380022884204D19BF80500002800F03282DDF82CA05046BAF1000FC5
:20325C0008BF1020049013AF00200390DDE909560024280400F0E6819BF80F0010B90120FA
:20327C008BF80F00F0B200210CAA04234FF0000824F07AF80C98BAF1000F1DD010F4403F65
:20329C0017D04FF40050DFF820140134013DABF810009BF80F00097801388BF80F00012058
:2032BC0050FA86F0B0FBF1F202FB11068BF80D60CFE7A046CDE90956C0B20A9D002470281A
:2032DC0003D0E8B270211FF0A5FD5FFA89F600210CAA0423304624F047F89DF83000FE2899
:2032FC0003D03046FE211FF095FD30460621FE2222F0E2FF4FF400500BF116018BF80C9034
:20331C008BF80D50ABF814405A46ABF81000FF208BF80E00E8B2400050FA85F0D57B01EBE2
:20333C008000B0F806B0DF4804707000A2F812B050FA89F001EB8003FE20194601F8020F73
:20335C0033F8060F02910790D7480193047812A81FF056F80A980A9A089655FA80F00138C5
:20337C0090FBF4F101FB14000090D5B20A92B54200F04A81A81BB0FA80F040090590002071
:20339C0006900020C00740F093801FFA8BF0162871D9C4480078002840F03C81ABF1070AEF
:2033BC0028460DAA1FFA8AF4214615F02FFABDF8426006F11000A0421AD89DF83E009628DD
:2033DC0016D19DF83F00C10701D1800703D40020AAEB060B2CE0AAEB06009DF83D20314648
:2033FC002B4684B2204618F0B5FA20B3ABF1080A1FFA8AF01728C0F00D81AAF11604362849
:20341C0028463A4688BF2024AAEB040AA3B21FFA8AF123F0A9FF2004EAD017FA84F010F865
:20343C00010C962801D0013CF5E704EB0A0B0020DDF82CA0A6E7F01D83B2079813FA80F10A
:20345C00B1F5005F01D90120F2E780B28B469A4918440A1A2846214623F086FF06980130D5
:20347C000690BBF5005F07BF01204FF40051594600200791ACE7069810B18C4924F0B5F831
:20349C000098C0B2854200F0C2800A990120089E50FA81F084490978B0FBF1F202FB1102FC
:2034BC00824902EB420001EB8000B0F81CB05CE7069810B17D4924F098F80020DDF828905D
:2034DC000590784C2078002840F0A48007981021C0F50052103883B20898C1F200121EF09C
:2034FC00ABFF217808431299207071480068426870489047059888B16B4800782918013911
:20351C0091FBF0F202FB101968495FFA89F0400050FA89F001EB8000B0F81CB0634807994A
:20353C00089C0123A0F814B08346018280F80E900198BBF9122001809BF80D10204620F0C3
:20355C005BFFBBF914209BF80E102046022320F053FFBBF81000BAF1000FC0F5005004D019
:20357C0004998842A4BF01210391049988424FF07C01B8BF7821089C20461FF04BFC0CF020
:20359C0009F905469BF80F000621FC22401B8BF80F00204622F090FE0299FC209BF80E3060
:2035BC0008709BF8021015FA88F00A9301443E480078B1FBF0F202FB101909F101018BF838
:2035DC000290CAB2B2FBF0F202FB10118BF8011003EB43010BEB8101898B102906D10A990F
:2035FC000131B1FBF0F202FB10100A900998401BBAF1000F09903FF429AE039880F00100D3
:20361C00C0077FF423AE0DE00120354658E7DDF8009056E7264812990068426825489047AA
:20363C0000223AE07C201FF00FFC0446FF281DD17E201FF009FC0446FF2817D19BF801403E
:20365C0004EB44000BEB8000807DFF280AD016489BF8021000780144013991FBF0F202FB42
:20367C00101403E020467E211FF0D4FBE0B2FE218BF80340400050FA84F00BEB8000808B4E
:20369C00ABF806009BF802001FF0C4FB00208BF80500BBF81000C0F5005210B21BB0BDE85E
:2036BC00F08F00BFD80000203503012008FC0020D801001000400340002000112DE9F8434D
:2036DC0005460C46480414D4A00023D4A0075DD4600500F18080200500F10781200700F182
:2036FC003C81600040F1F78018F06AFD24F08044F1E024F056FBDFF824140F6D3FB1D7E931
:20371C000A1202F0E04201F00A01891848D024F050FB5DE0BC48DFF80874016841F080019A
:20373C000160B878012804D104201FF0DBFB0020B87024F036FB0646B448406D01680420C6
:20375C008847DFF8E4130A68904219D12A7EBAB1FA68AAB1DFF8C403806C002800F09880F8
:20377C00C16840F603020988914206D0C06840F604010088884240F08B8005F1140089E02C
:20379C0040F6C4120860C5E9042285E009F062FADFF88803006C002808BF24F002049AE0BA
:2037BC00D7E90A65D7E90A12AA43B143C7E90A1224F0FFFA56EA0501B86818BF002807D0EC
:2037DC00D7F808C03869B7F9301032462B46E04724F480447FE024F0E4FA054621F0E2FE2C
:2037FC00002800F0B780CD48876B002F00F0B280DFF82C830420CD49002288F81800C7487D
:20381C0022F0B5F824F05CFAC94824F0C4FAC5480068006B8047C8F810000125042088F83F
:20383C00025020F09BF8386990F82810C8F80400490703D5436A04210022984701201AF02C
:20385C00DFF9D8F80400457611F0A4FBD8F8040081680B461A465B684BB11E88A6F60306CD
:20387C00072EF7D805FA06F616F0830FF2D0537B03F0F003013353730023FD6853602D8835
:20389C00A5F60305012D00F28A80C8F810309FE005F110001CF040FF304624F08AFA20F051
:2038BC0075F878B12E6A28466FF4807100224FF00073B0479948806B10B118F081FC01E03E
:2038DC0044F00204EE692846002100224FF08063B04724F0005434B1984821462830BDE8E0
:2038FC00F84324F09EBABDE8F8838D4EB078012804D104201FF0F6FA0020B07020F046F833
:20391C0038B170686FF4807100224FF00073056AA847306950B183480068006B80473269AA
:20393C007168801A000BC860002030617B4D82490022284622F01BF802203076286C20B19F
:20395C007E480221283024F06CFA18F039FC24F40064C0E724F0B4F941E024F022FA0546D3
:20397C0021F020FEA0B1DFF8B88198F8000000070ED498F9000000280AD4684612F0E4FAFD
:20399C0008B1009820B1DFF8B89199F8610048B324F096F918F014FC24F008049BE7034636
:2039BC0033F8385FA5B190F8445090F8456005F0F00580F8445006F0F005013580F8455066
:2039DC0000255360C5634587507B00F0F000507358480022C2610160012022F045FA24F4C1
:2039FC00806478E700260127602E11D009EB0600817A31B18772407A07FA00F0C0B21FF0AF
:203A1C008BFA2036F0E700BFCC2108408C010010032088F81800464824F0BDF924F050F9D7
:203A3C00444F3E4D0022786900207861F968F8602846444921F09BFF3A480068006B8047D5
:203A5C00D8F80C10D8F82020411A02EB1130B0EB113F38BF4FF0FF3098F82410C8F82000D1
:203A7C0021B1D8F80810B0EBC12F20D922F00CFAB8B140F60900414621F83C0F0020488059
:203A9C004A7B02F0F00201324A730A7B02F0F0020A734860F8613960B8F83E0010F4406F50
:203ABC00FAD00020C8F82000012088F824001CF05FF82548002101600220002122F0D4F9E7
:203ADC0002201FF00FFA102010F08EFD98F8010020B9D8F80400503024F09BF91B48807814
:203AFC0010B90D2010F080FD98F8250028B1002088F8250005201FF0F5F9002088F818000A
:203B1C001348C8F81C000220B5F85610B5F85420914208BF072017F039FD3BE7B8060020FE
:203B3C00900500208C010010B40D00209D55020088FA002000100440DD000100F805002051
:203B5C00E8F7002041C20100000004603C970200C1F900002DE9F04F8DB084780226142C5D
:203B7C0000F21F820546DFE814F02900150015004A0085001C021C021C021C021C021C02AA
:203B9C001C021C021C021C021C028E009C00AF00BE00CC0001206A78022C8DF8310008928F
:203BBC0040F0C080E878291D03288DF82C0040F0E18009A8082223F007FCE0E010208DF800
:203BDC002400102024F017F998B10446DFF8E00321466060E81C0FF0C1FB8DF8240028B994
:203BFC00204621F06FFD8DF8240010B1204624F000F9002609AB642000210122C2E1002084
:203C1C00CDF82A00ADF82E00CDF8260002208DF82C00E81C24F0EBF8ADF824006979A87941
:203C3C008DF82D1023F058FC8346E81D24F0DFF895F80C908046687AAC7A95F80BA04FEA1E
:203C5C0049078DF83100384624F0D5F8002800F01081CDE9074806464FF0000805EB0800AA
:203C7C00474570D00D3024F0C2F826F8080008F10208F3E7E8781FF005FA8DF8240009AB83
:203C9C006420042189E1E978032900F25281281DDFE811F00400510155015D0117F018FD70
:203CBC0076E1E81C24F0A3F8C04C6668002E00F0E4806A79002A00F0E4803368A91D184464
:203CDC0023F082FB0020D9E0B84EEC1C04212046376820F0D3FE002F4AD0B968814200F029
:203CFC00A0803F68F7E7A888ADF82400E87809A922F0D0FB8DF832000DF132036420132179
:203D1C004BE10026E878ADF8246009A921F073FEBDF824000DF1320314210222ADF832003C
:203D3C0064202FE1E81C02218DF82C1024F05FF8ADF82400002005F10608ADF82E006879DF
:203D5C008DF82D0026E0BBF1000F00F0B580437B0DF131010E30CDE90496CDE900010798DD
:203D7C005946CDE9020A09A8089A1CF0A2FBA4E0012000E1084624F03AF8ADF82400287B44
:203D9C008DF82D0005F10D0024F031F8ADF82E0005F10F0898F8000023F09EFB054608F1B5
:203DBC00010024F024F898F8036098F804A098F805B08146022C8DF8326009D108F1060065
:203DDC0024F015F8074608F1080007F10A0104E098F8067008F1070039464DB10A3189B278
:203DFC00FB2907D3DFF8C481D8F8040000286ED0022009E00DF132018DE8030C09A84A4652
:203E1C003B46294603F0BAFC089E8DF8310006F0E000202840F0C4800DF1310364202146E2
:203E3C00BBE0EC1D204623F0E2FF6D7A002D00F0978005F102098246484623F0DCFF0028E0
:203E5C0000F098800026457080462A460670786800EB0A0108F1020023F0B6FA5FFA89F24F
:203E7C006420122143461DF0A5F8404623F0C1FF97E010208DF8320024E010208DF82400A8
:203E9C0016E0D6F800C0F38AB28A3169757EB77E06F11800CDE900C0301DCDE9025703F033
:203EBC006DFC8DF82400606823F0A3FF0020606009AB6420112170E002208DF8320030466E
:203EDC0023F097FF0DF132036420032165E007F11C0023F090FF0028C8F8040055D000F145
:203EFC001C010C22016000208DF83100D8F8040009A9043023F068FAD8F804000F214FF4AE
:203F1C007A7205612A4DC17680F81AB080F819A00676C782A0F814900821287823F0D6FE61
:203F3C00089E00283FF473AF2878082118F0B2FD6DE702202CE0007818F0DCFD28E0007867
:203F5C0023F0CAFA18B322F0BFFF002020E023F04EFFA97923F0C6FCB0FA80F0400917E002
:203F7C003068B84201D138683060384623F041FF002000E0102000262070642012210222FF
:203F9C00234666701DF016F80BE010203CE701208DF8240009AB6420102101221DF00AF808
:203FBC00002630460DB0BDE8F08F00BFEC0C0020340301202DE9F04F8FB00C4608040BD468
:203FDC00A00425D4DFF87C53287802282CD1E1077CD1A10641D558E0DFF86003007819F0D6
:203FFC0057FA90B10178DFF8582305460020602808D0135C08308B42F9D1104450F8041C83
:20401C0028468847284622F0B9F884F4004591E11CF032F928B10546FCF714FE284622F007
:20403C00ADF884F4005585E1A1062ED4012814D8E10600F11381610600F12B81210600F146
:20405C003981E10500F13B81210500F13D81E10400F15081610400F15781A10700F1DE8056
:20407C00A10500F1F680210700F10D81610500F11581E0034FF0000540F15C811AF016FD31
:20409C00B348C57084F4803554E1AC4F202138781DF050F8DFF8B882D8F80810084324D0F9
:2040BC0023F071FE054623F045FBD8F8081059B168434FF47A72B0FBF2F0401A4FEA500583
:2040DC0038BF6FF000458DB9002570E0A44890F82C100F2906D190F82600022802D30020E2
:2040FC001EF0E2F984F0010524E1012500200421002220F0D9FF06464FF006094FF0FF08E7
:20411C004FF6FF7A0DF1080B002E4DD0304604210022374620F0C8FF06463889401B38BFF9
:20413C00002038810004EFD1B87BD0B301280AD17889400707D4386887F80D90B721407B9A
:20415C001CF052F8E0E739685A468DF80680ADF804A0086AC97F0CF0A9F901281BD1B87BF1
:20417C00B97A8DF838000907788A40F08002ADF8362006D540F4C070ADF83600387B8DF822
:20419C003A00786910B1007BADF81800584601A9002202F0B7F9387B87F80D9015F08AF88D
:2041BC00B2E701207873AFE7DFF8A481634F21F09FF800200121002220F076FF18B13878F0
:2041DC00202118F067FC002004210022002620F06BFFC8B306890421002220F065FF28B172
:2041FC000289B1B2914228BF1646F4E7A8B2B1B2814224D988BF08462021401B80B24200A2
:20421C00387823F063FD23F0BEFD054623F092FA68434FF47A71B0FBF1F615E05148007836
:20423C0008B302AD284623F0C4FC23F0ADFA4E490B784E490A78294619F05EFC20E0387848
:20425C00202118F027FC0026C8F8086084F0200570E014F0EBFC84F400756BE007F09AFCEF
:20427C0084F0100566E03E48418B012023F0B9FD2878022804D131480121007819F0DAF88A
:20429C0084F0020556E03248012184F00805817050E00BF00BFC84F040054BE0022808BF3C
:2042BC0014F008FF2E480121808C23F08CFD84F480653FE022F0A2FA84F080053AE020F04A
:2042DC004FFD84F4807535E01AF058F91E48007801280CD11D48007848B14FF47A7100FBB6
:2042FC0001F216484FF40061007823F0ECFC84F400651FE01648017819B1002101701AF021
:20431C003DF984F4805515E01348006880B11149097801290CD180471048006800B1804734
:20433C0006484FF480414FF47A72007823F0CBFC84F4804528460FB0BDE8F08F36030120A6
:20435C00D4900200A80C0020AB0E0020AA0E0020600C0020A80E0020DC090020E8090020DE
:20437C0070F70020840E0020AE0E0020B00E00202DE9FE4F8846080426D45FEAC87004BFB3
:20439C000020BDE8FE8FE548056823F0FCFC044623F0D0F960434FF47A714FF6FF72B0FBB2
:2043BC00F1F14FF6FF70002D00F01A812B886C88CB1A9BB29C4240F21C81E31A94B2A342E5
:2043DC00B8BF1A46ED68EEE7DFF840A3CDF804809AF8000019F05CF8002800F0FC800646EE
:2043FC000078012840F0EC80DAF8041096F83390D6F814B096F8138021B148468847002823
:20441C0040F0DE80718896F83100022220F008FC0546002842D0287A297CA0F10108FF2974
:20443C0000F0BB80707F4F46C00718BF0027E97C287D0144B94204D8E974FF2101FA00F05E
:20445C006874A969A87C96F83020896A10FB0710F16A22F0B9FF287D697CB7FBF0F202FBFB
:20447C00107001228240D2B20A436A74C8457CD196F83010AB7C13FB0713A9698B844FF431
:20449C00FF7303FA00F0C0B21043FF2868746CD1287C19F089FBFF2028747FE0707FC0079B
:2044BC0000F08E80B07F23F017F8002800F0888004461C2023F09FFC002800F081801C21E7
:2044DC00054622F03DFEB07F02A921F094FA9DF8090002212875284621F016FB708896F83B
:2044FC00312096F8301096F83330A880287DEA71FF2202FA00F0687460680078A974287486
:20451C00302013FB010080B220F0BCFF0028A8615DD004461A20B11C2060708CA080A01D1B
:20453C0021F0C6FFF27F04F13000B17F96F82830C4F81CB084F81980A062307CE273744A7F
:20455C00217563750121A075928C2282F28EA285F28C6282B6F81100A4F817009AF80000CB
:20457C0085F8089018F096FA55E723F00CFC044623F0E0F860434FF47A71B0FBF1F06549DB
:20459C0028806348097800794843642148436249097800FB0100688000E04F46E87C297D88
:2045BC006A7C01440139B94218BFC8450CD186F83300708806F11C0186F8342015F0AEFD7F
:2045DC00304621F0DBFD03E7FF2AF9D1EFE7284621F0AAFAF4E7019880F40040BDE8FE8F30
:2045FC0092B282424BD049480121007823F06EFB45E0A879022806D1287CFF2837D0A869AB
:20461C0021F0BCFD33E023F0BEFB044623F092F860434FF47A71B0FBF1F03F49288095F8D4
:20463C003800097888421BD295F83620FF2A06D195F83720013085F8380085F8362095F8E1
:20465C00351095F8394082F0FF0300200126C7B2A7421DD206FA07F71F4214D10130F6E795
:20467C00EA8BA87E95F82A10E9231DF077FB284621F05AFA25480121007818F00BFA88F0D2
:20469C000100BDE8FE8FFBB201441A4385F83620AB8F95F83440C8B204FB10339EB2A6427A
:2046BC0003D2FF2285F8362002E0FF2A08D12346184A174E1278367972436426724302E0F2
:2046DC0095F83A2023466A802A8D0E0606D022F0200244432A852A6C224404E042F0200146
:2046FC002A6C2985297A85F82E10E9796A6285F82D10D9B269840549496811B188470028E4
:20471C00B8D105F1100004F0CDF8B3E7CC0C002070F700209E0E0020A40E002044E1002039
:20473C007FB50138072800F24C810C46DFE810F008002C0054006E0089004901A600C900B1
:20475C00CB4800780138012800F23B81002C00F047810020032100241DF0E0FCC64DC74E45
:20477C000420042132222870307823F0AFFA0820002106F071FA30786C704FF4805104B08E
:20479C00BDE8704018F056BE0020002522F0ACFEBB480121017004208DF80D0074B1B5481D
:2047BC00B34C45852078012803D1072021F0ACFB2078022802D1062021F0A6FBAE48042118
:2047DC0032220570AD48007823F080FAA94890F82B1001F0FE01F2E0A548007801380128BD
:2047FC0000F2EF80A54804213222007823F06EFA002C00F00F819F4C9F4801210170206949
:20481C00002800F0EC801DF0D7FFF8E70120002C8DF80D007BD0974800219B4A80F82A1075
:20483C00984823F01DF8924C2078012803D1072021F06AFB2078022870D1062021F064FBAB
:20485C006CE002208DF80D008A48002C73D000218D4A80F82A108B4823F002F8002003212D
:20487C001DF05CFC824C2078012803D1072021F04BFB2078002877D1092073E07C4D002069
:20489C008DF80D00002C28787BD018B9092021F03BFB2878022806D10820002106F0DCF95D
:2048BC00042021F031FB0FF0F9FE73480021C822017070480D2180F82A10704823F095F95D
:2048DC0078E005208DF80D0069480078022878D1002C00F0C38068480022C178C270017004
:2048FC0042F20800002106F0B7F962480D2190F82B2080F82A10C17802F0DF02002980F88F
:20491C002B200CBF04200D2021F0FEFA59E05848007818B95748022180F82A1056480021B6
:20493C0032220170554823F060F9524890F82B1001F0FD0143E0082180F82A104C4909782D
:20495C00012911D890F82E0070B900200DF10A018DF80A0052201CF011F822F041FB1DF0AF
:20497C0077F8002021F0D0FA4348002132220170424823F03AF93F4890F82B1001F0FB0139
:20499C001DE03C4C022812D194F82E0078B194F82B00002140F0200084F82B0005208DF80D
:2049BC000D00082006F058F90A2021F0ADFA022084F82A002F4890F82B1001F0EF0180F822
:2049DC002B102C480022032390F82A008DF80C002A48007803A900910A211CF066FF7FBD82
:2049FC00244C0720254D4FF4805184F82A0001208DF80D00287818F01DFD0020002620F00D
:204A1C00B3FA2878022141F2883284F82B6023F05DF9D6E7174C022000218DF80B1084F82E
:204A3C002A001548017094F82B000DF10B0100F0FD0084F82B0001208DF80D0052201BF0DD
:204A5C009DFF22F0CDFA1DF003F8002021F05CFA20690028B5D01DF0AFFEF9E705480221F6
:204A7C0080F82A1090F82B1041F02001A7E700BFA80C002038080020B00201203D0301209E
:204A9C009B0E002070F700206E0E002092B0DFF8EC92D9F8000010B1002180F8451048307F
:204ABC001FF024F923F07DF98046072010F064F816F0A2FD10B1B24823F078FB19F0F8F8FD
:204ADC0001AD284622F0F0FC0427002029468DF8047022F0F1FCAB4C206022F02DF90AAD88
:204AFC00284622F0B1FB002029468DF8287022F0B3FBA54E306022F029F906AD284622F018
:204B1C00B3FB002029468DF8187022F0B5FB31689E4D286019B99E4823F048FB286810B9FA
:204B3C009C4823F043FB206810B99B4823F03EFB1BF0A6FAD9F800004FF0FF3438B1CDE917
:204B5C00104410A9082221F0C5FB01281BD1CDE91044082023F04FF9002846D005460026E0
:204B7C00052E04D822F0E0FFA8530236F8E74FF6300029460822E880884822F025FC284620
:204B9C0023F037F909E0D9F80010CDE910440029DFD08248082222F017FC10AA01200821ED
:204BBC0022F012FF092800D0D8B920F024F8800712D4CDE91044CDE90E440EAB012000217E
:204BDC00082222F08FFA60B90EA810A9082221F081FB002800F0CB80704A0120082122F03C
:204BFC00F9FE6E49E2201BF0C9FE11F02DFC282023F001F96A4E0028306055D0694F6A4C95
:204C1C0007F10C0522F0EDFF22F076FB3068056007F1100522F0E5FF64498968D1F84C1328
:204C3C0088473068456007F1140522F0DAFF1AF02DFE3068856007F1180522F0D2FF18F09E
:204C5C00B7FA3068C56007F11C0522F0CAFF1DF0DDFF3068056107F1200522F0C2FF1CF0F3
:204C7C006FFF3068456107F1240522F0BAFF1BF0FDFD3068856107F1280522F0B2FF21F004
:204C9C0041FE3068C56107F12C0522F0AAFF1EF0B5FF3068056207F1300522F0A2FF3870CE
:204CBC0022F062F93068456217F07EFC404841494FF00009CDF8409001603F48032111900F
:204CDC0010A81EF01BFE22F0C8FC404623F071F816F0A0FD22F04BFF01201CF0EBFB18F0E7
:204CFC00BDFC37480078022808D134480078012804D14FF40040012105F0AEFF294F4FF4F1
:204D1C008041387822F0BEFD2E484FF0FF31006823F048FADFF8B08078684FF0FF3123F02E
:204D3C0041FA3068002550F82510096821B9691C092D0D46F7D3EFE722F034FA316851F8C7
:204D5C0025100C68C1F8009022F096F858F82520002021469047044622F024FA316851F856
:204D7C0025100A6822430A6022F086F8D4E70B480EA9082222F028FB33E700BF400E0020A6
:204D9C003C910200980201209C020120A00201205A9102006D910200809102004E0201207A
:204DBC0014030120B4040020CD2E02000C010020F40900203DB50100008D1500C30E0020FA
:204DDC00A80C0020F0020120549402002DE9F04F89B08A4608040DD45FEACA7040F01D814A
:204DFC005FEA8A7000F12B815FEA0A7000F13381002042E1A24F387818F04AFBDFF888922D
:204E1C00A04C06464FF0000B48F21508002E00F001813078312838D0322849D0D32840F056
:204E3C00B380F089404573D0382840F0AD80CDF820B0CDE906BB304606A91EF037FE9DF81C
:204E5C001C10052968D8307B002840F09D809DF81D00002800F09880052800F295800698C8
:204E7C0021F0F1FE002840F08F80707C87497870708808809DF81D00214601388DF81D0097
:204E9C0006A890E82C002CC17EE0B87803287BD899F82E10804821F0D6FE002874D1FF20A3
:204EBC007C49607170880880B088794908806BE06079FF2814D0002015F020FA0246B9F8D7
:204EDC00701078783346CDF800B011F0B9FD6079002859D038780821322222F0F7FE53E010
:204EFC0099F81810706820FA01F2D2071ABF3144097A002106F1080200231B2B42D020FA97
:204F1C0003F5ED0702D0D55CA9421ED80133F4E730461FF089FF37E0FF293DD0FE2956D1EF
:204F3C0099F872109DF81E00884202D860BBFF292AD11BF047FB069900201B2859D021FA1A
:204F5C0000F2D20757D10130F7E7B9F86E004F49334608804E4802884E480188102000907C
:204F7C00002011F06DFD0120F870B87840B93C2002214EF66022B880387822F0A7FEB878C4
:204F9C000130B87084F805B0304621F0F7F8387818F07EFA064639E799F872109DF81E0093
:204FBC00884203D80028EFD1FF29EDD11BF00AFB069838B1D9F82810814203D0C9F8280043
:204FDC0020F0B2FFBDF8200021F0D8FCDCE7307B0028D9D170882D49802200230880707C53
:204FFC00CDE900BBCDE902BBCDE904BB10F026FCCAE71B2000E0C0B299F818108142C3D0CD
:20501C002649087099F80700642100FB01F23878012162E78AF400402FE020491A4C08784B
:20503C002076E1201BF0AAFC20F07EFF0020A4F87000012015F062F98AF001001DE0104802
:20505C008188B1B101394EF6602281800078022122F03CFE0FE00B4C607938B121792068B7
:20507C0021F0F1FD10B96079013860718AF0080003E0002181708AF0020009B0BDE8F08F99
:20509C00540B0020F001012070F700202A02012042FC0020F6F8002000F8FF0739030120C8
:2050BC002DE9F04F85B08846080418D4AA480078012802D85FEAC87155D15FEA88714CD40D
:2050DC00022807D1A5480078012803D15FEA487000F188805FEA087057D400202DE1DFF865
:2050FC0060A29AF8000018F0D3F9002800F023810546807FC8B9688C132816D191486E88C0
:20511C0000F11C09002049464F46002818BF071D086850B1014631F8042BB242F4D1446881
:20513C003C6022F066FE2046F3E7A87A05F1020B022840F0E680DFF80C9295F83170BBF8C6
:20515C00006009F11C000068A0B10188B14202D18178B94242D00430F5E77A48012101704A
:20517C0088F00200E9E07748406900B1804788F00100E2E0D9F81C40002C57D0012061684B
:20519C00002955D001300C46F9E77148DFF8B491807BD9F81C60000760D422F0F4FD04469D
:2051BC0022F0C8FA6B4A60434FF47A71B0FBF1F0D9F818101288411A91427CD3B1FBF2FB44
:2051DC000BFB02F2511A08445F49C9F818001FFA8BF00978884288BF8B4641E05A49097845
:2051FC00C170A5E05F495E4800224FF6FE7300240978023079B130F8025C9D4208D04588AC
:20521C00013D45802D0406BF027020F8023C012401390630EEE734B1494804214FF4FA72FD
:20523C00007822F053FD88F0040086E000240020464980B20988884263D2082022F0DBFDEF
:20525C0000285ED000210680877041603E490978C170D9F81C1089B3606041E04FF0010BFF
:20527C0000205FFA8BF44FF0000A071D002808BF09F11C07A6B1F078A04298BF2046A0EBB8
:20529C000B00F07006D8756830463D6022F0B1FD2E46EFE7716830460AF1010A0E46E4E73B
:2052BC005FEA0A4007D100200821C9F818002448007818F0BFF888F008003EE0C9F81C0027
:2052DC002348807B00070BD422F05DFD044622F031FA60434FF47A71B0FBF1F0C9F818003D
:2052FC001B48807B00070CD59AF8000008211BF021FF30B91748082102889AF8000022F0C7
:20531C00E2FC2878022810D0012811D1297EAA89EB7C05F11C006C696E7E8DE85A0005F105
:20533C001003594604F0ACFD02E0284615F05EF8284620F023FF88F4004005B0BDE8F08F22
:20535C00330301205C0A0020A30E0020680E002070F700206C0E0020A80C0020C30E002007
:20537C0078E900207E0E00202DE9FE4F074608680024B0B1D7E9018A0E4622F012FD8146B8
:20539C00D8F8E800082888BF0124B068204202D17068204208D003203074484622F009FDD1
:2053BC0000242046BDE8FE8FD8F8C01069B198F8F8100029EFD006213174D8F8C410C8F8AB
:2053DC00C4604E6198F8FC100DE000210522C8E93066C8E93411C8E9361198F8FC10002913
:2053FC0008BF0122327400220129726109D102204FF4E02188F8FC0098F8FB001EF08EF906
:20541C00706889490138884205D804201EF0A6FA06201EF0A3FA02201EF0A0FA98F8F800F1
:20543C0040B9DAF83C003168814203D298F8FC0000286CD0D8E9361009B118B900E028B3DB
:20545C0022F0D7FBDAF80000416941F001014161484622F0AEFC98F8F80008B10124A0E7C4
:20547C0008F16C05D8F8EC10284621F023FD0028F4D0D8F8C00003210174384609F070F946
:20549C0028460021002421F015FD8AE79AF8040022F089FC654CDAF810100222206991FAA1
:2054BC00A1F1B1FA81F14368D8F8CC004068006898472069DAF8141002224368D8F8CC0001
:2054DC0091FAA1F1B1FA81F14068006898479AF8040022F062FC9AF8040022F066FC22F065
:2054FC0088FB0020C8F8E000D8F8C0000068B0F5806F01D922F07DFB98F8FE000028A1D135
:20551C00DAF80000416841F0020141609AE798F8F90020B1D8F8EC0001307FF48BAF48461C
:20553C0022F047FCB2683AB1D8F8E8000221092838BF0121009103E008F1F40200200090BD
:20555C00746834B1D8F8E8000227092838BF012702E008F1F6040027DAF80000334D416846
:20557C0041F002014160D6F800B0D946BBF1000F40D0D8F8E800019209284FF0010011D233
:20559C002A68B9F1000F1FD0C0071DD02178DAF800009268904700281EBF3C44A9F101099C
:2055BC000120EDE72A68B9F1000F16D0C00714D02188DAF800009268904700281EBF3C442D
:2055DC00A9F101090120EDE7DAF80000D26802A99047DDE90120107007E0DAF80000D2682E
:2055FC0002A99047DDE9012010800098ABF1010B0244BBE7D8F8F000DAF80010CA68024058
:20561C00102802D1002AF9D101E0002AF6D0706820F030F9D8F8C0100020C8F8C400C8F889
:20563C00C00008741AE700BFFEFFFF0FC40100102DE9F04F87B000F102098246484622F082
:20565C0018FB01AC06461821204621F079FD9AF8017004F10B00494622F089FB02209AF820
:20567C000A108DF81A006FF00100ADF8180000208DF80C0001F00800890708D480B90125C3
:20569C004FF0000B00244FF00008012115E068B903214FF001084FF0000B002500240CE016
:2056BC00022100254FF0010B002404E0042101244FF0000B00254FF0000884480078384374
:2056DC000DD0834890F8260008280BD1009121F0E3FD012F0AD148B14FF0C30B69E04FF031
:2056FC00C30B01E04FF0C20B002464E09EB332790098824218BF022F17D144EA08000128C4
:20571C0003D1D01EC0B2022807D34BEA0501501E012917D1C1B2012914D830881FF09CFC92
:20573C00D0B93088ADF8180018E04FF0000B49463B468DF81AB03088ADF8180022F045FBE7
:20575C00012437E0C0B2012802D8308822F05BFB484618F04DF90026BDF818004FF6FE71D9
:20577C0088421CD11FF084FA10B1BDF818000FE027B1584C20881FF06FFC30B19AF80A0031
:20579C0000F002001CF0C8FE00E02088ADF818004FF6FE71884202D14FF0C70B09E09AF807
:2057BC000A2049463B4622F010FB002859D04FF0010B0024009977B1012F11D14A480078D9
:2057DC0070B9002E43D0002001228DF81A0001A813F0F0FA09E001A819F01EFE76B91AE0EB
:2057FC0001A83A4613F0E6FAAEB17179022F41F04002727104BF41F0600171719AF80A10CE
:20581C00490603D5717941F080017171B17900250131B17100E00125B0FA80F149090C4263
:20583C001CD107D1002C18BF834641F20100594614F02BF915B9484618F0DAF8BDF81800BD
:20585C004FF6FE71884218BF22F0DDFA06E0022001228DF81A0001A813F0ACFA07B0BDE876
:20587C00F08F1D48016811B1BDF818008847BDF81800009A494605F05FFB06461748184910
:20589C000A6800784FF4803122F020FA01211548C17036B1022F0DD00099012F0FD1102064
:2058BC000AE04FF6FE7000244FF0010B0026ADF818007FE7009908207279104370714FF058
:2058DC00000B01248DF81AB075E700BF7C0B002070F70020600E0020F009002036030120E3
:2058FC0020980200600C0020A80C00202DE9F04F8DB0044600209A4616460F46CDE90B0024
:20591C00CDE909008748856880460FF0EBFF262803D00FF0E7FF25281BD1308840F6020111
:20593C00884218BFB0F5C15F03D1F07B022810D93EE043F6070188420BD196F824000328B1
:20595C0007D33069784940F0806020F0604088422ED100206FB366B3387825FA00F0C0078D
:20597C0026D03046002122F040FA7048C4E90176006880B109A800900CA90BAA0AAB3046E7
:20599C0009F028F90B980B214FF6FF72502320F09BF9FF280CD022F004FA654F0646787832
:2059BC00012802D840B1012070E0304622F001FA00200DB0BDE8F08F09F066FE5D480DF1E2
:2059DC000409016841F0020101605B48C8F80000484621F059FDDFF864B15A494A469BF896
:2059FC0001009BF800500390554828301AF004FA554856494A461AF0FFF9484621F064FC4A
:205A1C00DFF84C81534A19214B46029540461BF04DF9514A08F11C001A214B461BF046F92A
:205A3C004E484F4922F0F9F84E484F4922F0F5F84E48006810F4402F06D04D4A07F12800EE
:205A5C00042100231FF078FD9BF8020010B10D200FF092F808F1400021F0DFF808F1380000
:205A7C0021F0DBF84349002007223876B8843862386181F860200521C7E902103E49F96172
:205A9C0038700420002120F0EFF978782C4941F8204001307870304622F08BF9BAF1000F28
:205ABC0006D10DF1040A35492022504622F030FADAE90012BAF81000DAE90635002AB2FAEA
:205ADC0082F608BF40F6C4126261216060832563760926764FF4FA76C4E9036201226276D5
:205AFC00274AC4E90722C4E90923DAF80C0000B12062DAF8140000B16062DAF8080000B175
:205B1C00E06104F13800C82121F01AFB04F1500000211FF0B4FB1B4904F1B80022F07DF830
:205B3C00204646E7CC2108400F000005040D00209005002000200940110000E03C97020058
:205B5C00F80500207D63020090FB0020A13C0100B806002041C201004DA60100CCFA0020E5
:205B7C007955020088FA002029630200B44F0050B9EB0100E8F70020C1F9000000950200C1
:205B9C0057300100137D02002DE9FC470446019005789448465D9448E840ADF80260C007CD
:205BBC0040F01E810D2D13D1904E0DF10201B068D0F8282453209047BDF802104FF6FD700E
:205BDC00814214D8208990B14FF0000AA146AEE00C2D0ED0072D13D0052D0ED1A0780128D2
:205BFC0000F0FE80207C304400F1240716E0B068CDE06068C08AC0050AD44FF0000A09E04D
:205C1C00A07848B1A07D00EBC00006EB800705E04FF0010A374605E006F11B07ADF8027056
:205C3C004FF0000A38461FF02DFC38B38146072D44D1207889F80000607889F80100A078C3
:205C5C0089F802000028E17889F80310D4F80510C9F804105AD0A07D002889F8080049D0C9
:205C7C00A169002946D000EBC00009F110068200304621F0A9FBC9F80C6040E00C2D40F0A1
:205C9C00AF80A14659F8040F002800F0A98022F088F8804655488068D0F8541348468847C4
:205CBC0038461FF0EFFB8146404622F082F8B9F1000F00F0958021F0E7FE38E021F0E4FEB9
:205CDC00052D34D109F11806D9F804102422304621F07AFBD9F8141099F8102009F13C0046
:205CFC00C9F8046021F070FBD9F804002430C9F814001CE0002089F80800C9F80C00A0696E
:205D1C00A8B122F076F80020A0750FE01B2009F110061B2289F808003046A16921F054FB79
:205D3C00C9F80C60A06922F064F80020A0613048016819B148468847002846D10D2D2BD105
:205D5C00606801788A0720D42A4AC1F38301927C91421AD140783F2817D894F830000228F5
:205D7C0013D199F8470009F146011CF0D1FC01984FF6FF72418E91421FD140688079022885
:205D9C001BD3484618F04AFD50B318488068D0F8541301A8884723E00C2D0ED160781A28F5
:205DBC000BD0D9F8040040B1C08AC00705D099F8100009F10F011CF0ABFCBAF1000F04D153
:205DDC000D484946007817F0EFFE0C2D08D1019850F8041F21B105498968D1F85413D9E740
:205DFC00BDE8FC876096020019C206000C0100203C0E002070F70020360301202DE9F04FB9
:205E1C008DB00646806A447874B18D4909788C4280F012818B49023022462AB130F8023B3C
:205E3C00013A21F8023BF8E78748C18A708988422FD183480078A04240F2FE80B589814A1B
:205E5C002146284620F0E0FA284615F023FE064682480778BE4204D14FF6FE7015F01AFE99
:205E7C000646BE4280F0E880DFF8F48108EBC6094F4657F8040F08B121F0BBFF002C00F03D
:205E9C00B180600021F0B7FF0028386040F0AC80D2E0B27C002A00F0CF806A4F0025AC425D
:205EBC0005D037F815208A4203D00135F7E7A04600E0A846002113F07DF8002800F0AD8048
:205EDC0081464079012840F0A88099F8060010F0180F00F0A280B9F80210204620F082FB1F
:205EFC00A54202D3002800F098805848CDE90498B6F80C904FF6FE7A00780890544800787D
:205F1C000A90002006960B9052481130099052480430079000200C90DDE909564FF0000B70
:205F3C00F6B135F8117C574518BF4F4502D1013E1C35F5E72046394620F054FB0028F6D16B
:205F5C00287801380528F2D80C980BF1010BC007EDD00B985FFA8BF1C0B28142E7D356E088
:205F7C00DDE907862EB338F8047C574518BF4F4503D1013E08F12408F4E72046394620F012
:205F9C0031FB0028F5D198F8050001380528F0D898F8000001380228EBD30C980BF1010BAB
:205FBC00C007E6D00B985FFA8BF1C0B28142E0D32DE00B98000628D15FEA0B6025D001206F
:205FDC005FFA8BF50B90012D4FF001000C90A3D021F0AAFDC0B2B0FBF5F101FB15000B904D
:205FFC00012098E7002038601E4989F80140A9F80250097808F83610F4B1E8B11149620050
:20601C000DB0BDE8F04F21F0DFB94FF6FE770498069EDDF8148047800A4FB37CF47CB269DD
:20603C00B1890125581EB07470895FFA88F68DE8D00003950FF04EFD0DB0BDE8F08F00BFB3
:20605C0047980200A000012070F70020529802004198020024C10020F0A6002028980200B7
:20607C0050970020BC0E00202DE9F04F87B005462C200E4621F0BFFE002844D0778B044646
:20609C0021F094FB0021E1840121874208BF02212170707BA0703169081A6060204617F074
:2060BC0025FA3178814F01F00301387B012908BF05206070C0B221F0D7F94FF0FF31607705
:2060DC00A182217F326908440A44317D3261081A3075E070A069013017D0207C032816D87E
:2060FC00DFE800F002170209062021466082284615F03AFF10B3042021466082284607F0F9
:20611C001DF805461BE01025CBE0A32517E0A12515E00020B3256082F87A80B997F8410059
:20613C0001280CD1A07D4FF6FF7618F05FFD0025A082B04208BF6FF05E0500E000252078A3
:20615C00022807D104F1080620F06EFE0146304621F00DFE280640F0A180554F38780138BD
:20617C0001281AD894F8260010B994F82700A0B1A078E178227F08441044043021F03BFE39
:20619C0058B1A178E2780646207F114408446168021D304621F018F900E0002620460DF0F2
:2061BC00EFFB054638780138012873D8002E71D0002D6FD00DF1080800274FF0010B4FF493
:2061DC00D00908F1080A94F8260018B994F8270000285FD0A178E278207F11440844314608
:2061FC00021D606821F0F0F894F8260020B184F82670C4F8129007E094F8270020B12D48D0
:20621C0084F82770C4F8120020460DF0B9FB10B10021054639E04046142120F091FF608ADF
:20623C008DF819B0F0B9A08A40F20311884216D0682817D16068C17B052929D12A30FF210D
:20625C00082220F00BFD18B34FF0FF306946CDE900001948006821F08AFDFC2000E0FF20C6
:20627C008DF81800504669460022002512F008FA01469DF8000038B10420142243461EF01F
:20629C0065FB0321002500E0032103299BD101E00221FAE716B1304621F0ABFD204621F04B
:2062BC00A8FDE8B207B0BDE8F08F00BF70F70020A80C002000000301880201202DE9F04F8A
:2062DC0093B004461DF0CCF808B11120D6E0207F4FF6FE75C0B187480078810041EA401099
:2062FC0061882077FF201EF02BFE002190B1E08A05F101094FF0010B40F00400E082207F60
:20631C0040F00100207709E04FF0000B00254FF6FE7909E04FF0000B4FF6FE797648007860
:20633C00022838BF01218D01678838461AF082FE08B10020607694F81AA0BAF1000F04D1F5
:20635C006E4890F800A084F81AA094F90000C6B2B0F1FF3F07DDE07E40B969480178E1766D
:20637C000131017002E006F00306267064490495C87A304304D1207E012804BF00202076D7
:20639C00DFF8748198F80000012833D8887B800730D5BBF1000F1CD0E08A410606D5BAF1E4
:2063BC00010F03D120F00400E08222E0A188E07E627DADF822708DF82AA0ADF824108DF81B
:2063DC002B0006A803F092FC00283FF47EAF26780FE038461AF02EFE58B1002EDCD0206912
:2063FC0000780A2805D8012101FA00F010F4836FD2D143494FF6FE75012E07D12069007808
:20641C00022803D1E08A40F04000E08298F80000012806D8BBF1000F04BFE08A10F0400067
:20643C002FD088460DF11701204605F0FDF806461FFA89F0A84208BFB4F80290EEB1207809
:20645C00617D94F82C70B8F816209DF8173007948DF81800608DADF81A00E08A06ACCDE9A2
:20647C000274CDE900101FFA89F130460BF0D2F9102803D1304621F0BCFC102013B0BDE812
:20649C00F08F887B88468007CCD5049EA71D6188607E3A46334612F0C1FA28B100206076B6
:2064BC00E08A40F02000E082387870B1618804F108001BF091FA81466088814504BF0020FF
:2064DC003870E08A40F04000E0822078012804D0A188608832460EF009FEA1886088324610
:2064FC000CF0B0FB00289DD0E08A40F02000E08298E700BFA10E0020A80C00203B98020072
:20651C0070F700202DE9F04F99B012AF884604461C219146384620F013FE204639460BF0CE
:20653C0039FB9DF8550010B99DF85C0038B19DF8480041060AD560891AF07CFD20B140F20C
:20655C0035100EF0D6FFEDE09DF84800C0F3401A00F00C0610F0200F18BF042E21D1E08DB7
:20657C009DF8483010F080010CD15A060AD59DF84920920706D143F0040202F00C020C2A78
:20659C0040F0D3800025012213F0030320D0012B4DD0022B40F0C680A08912A91AF010FA37
:2065BC00C0E0A58921F002F9854202D1E08D010609D4A58921F0FAF8854200F09280E08D93
:2065DC00010600F18E80000600F18080A08981E0DFF85CB19BF80B30012B02D1A379002B20
:2065FC007CD00223A7898DF84430ADF83C7099BB042E79D1207C514E8DF85E0030680028E6
:20661C0000F0908021F0D2F8874240F08B80E08D217994F8302036682B460492CDE9001A27
:20663C00CDE902900FA812A94246B0477AE0002918BF012152EA010003D1A08912A913F091
:20665C006DFDA0890797ADF81800A0798DF81A0006A818F0B3F965E0ADF8300016989DF8B9
:20667C004A109DF84B208DF8203094F832300B9060898DF82310DDF84E108DF8222094F81F
:20669C0030208DF83830ADF81800BBF82400CDF826109DF85C108DF83720ADF82400207CD0
:2066BC00ADF82A10A17C8DF8320020798DF834109DF85F108DF833009DF85D008DF8361030
:2066DC008DF8350006A802F0EDF82BE0A089ADF86200608912A91CF091FF10B14FF49A70D6
:2066FC002FE74FF0010A3AE71AB912A9384613F015FD11480078022807D10E480078012812
:20671C0003D1204610F064FD60B1A07CE17CBBF824204346CDE9001ACDE9029012A80FA92E
:20673C000EF0CAF819B0BDE8F08F012500222BE770F70020C30E0020A80C00206C0A002054
:20675C002DE9F04F97B0044680690DF15B0200214FF0000890F800B09C200AF03FFD7B489E
:20677C000078012808D8002004211BF0A1FD80469DF85B00404400E00120C1B200258DF836
:20679C005B0059457DD9A0EB0B060221F0B2022828BF0E461A207043C0B221F02CFB00270A
:2067BC00002800F0BF8009940BA907965FFA86FACDF814805FFA88F60446D8464FF00009BF
:2067DC000690CDF820B004310A915FFA89F050455DD25FFA88F0B04256D21EF05DFA002894
:2067FC004AD05B490546888C39312080A01C21F0BEFA4FF60270A4F8170028888DF82C7096
:20681C006082ADF82E00A97A61760BA811F0B4FA014604F10A00012903D10A9921F0A7FAB2
:20683C0003E04FF0FF3141600160287948B1484991F8381001310228217612D802210128C3
:20685C0011E04348022190F838006175298800290A4618BF0122227518BF411E217600203F
:20687C0008E001210328217502D16775012001E001206075A0751A3408F1010809F1010921
:20689C00A3E7002600274DE00598CBFA50F830480FAD4FF0020BAE1C00F139075FFA89F0E1
:2068BC0050453AD25FFA88F187202A460AF096FCBDF8460039462080A01C21F058FA04F178
:2068DC000A00314621F053FABDF83C001F49204B012209F1010908F1010860820978022942
:2068FC0038BF022293F838306275A3F1010238BF4FF0FF3202294FF00001227638BF01217D
:20691C0084F817B04900A175002818BF01209DF84E10207561761A34C0E7069FDDE908B41E
